{
  "_format": "hh-sol-artifact-1",
  "contractName": "CarbonCredit",
  "sourceName": "contracts/CarbonCredit.sol",
  "abi": [
    {
      "inputs": [],
      "name": "AlreadyAudited",
      "type": "error"
    },
    {
      "inputs": [],
      "name": "AuditRequestedAlready",
      "type": "error"
    },
    {
      "inputs": [],
      "name": "CreatorCantAudit",
      "type": "error"
    },
    {
      "inputs": [],
      "name": "CreditDoesntExist",
      "type": "error"
    },
    {
      "inputs": [],
      "name": "CreditFailedAudit",
      "type": "error"
    },
    {
      "inputs": [],
      "name": "CreditNotAudited",
      "type": "error"
    },
    {
      "inputs": [],
      "name": "CreditNotForSale",
      "type": "error"
    },
    {
      "inputs": [],
      "name": "FeeTransactionFailed",
      "type": "error"
    },
    {
      "inputs": [],
      "name": "MinAuditFees",
      "type": "error"
    },
    {
      "inputs": [],
      "name": "OnlyCreatorCanExpire",
      "type": "error"
    },
    {
      "inputs": [],
      "name": "OnlyOwnerCanRemove",
      "type": "error"
    },
    {
      "inputs": [],
      "name": "OnlyOwnerCanSell",
      "type": "error"
    },
    {
      "inputs": [],
      "name": "PriceNotMet",
      "type": "error"
    },
    {
      "inputs": [
        {
          "internalType": "uint256",
          "name": "creditId",
          "type": "uint256"
        }
      ],
      "name": "Expire",
      "outputs": [],
      "stateMutability": "nonpayable",
      "type": "function"
    },
    {
      "inputs": [
        {
          "internalType": "uint256",
          "name": "creditId",
          "type": "uint256"
        },
        {
          "internalType": "bool",
          "name": "vote",
          "type": "bool"
        }
      ],
      "name": "auditCredit",
      "outputs": [],
      "stateMutability": "nonpayable",
      "type": "function"
    },
    {
      "inputs": [
        {
          "internalType": "uint256",
          "name": "creditId",
          "type": "uint256"
        }
      ],
      "name": "buyCredit",
      "outputs": [],
      "stateMutability": "payable",
      "type": "function"
    },
    {
      "inputs": [
        {
          "internalType": "uint256",
          "name": "",
          "type": "uint256"
        }
      ],
      "name": "credits",
      "outputs": [
        {
          "internalType": "uint256",
          "name": "amount",
          "type": "uint256"
        },
        {
          "internalType": "address",
          "name": "creator",
          "type": "address"
        },
        {
          "internalType": "address",
          "name": "owner",
          "type": "address"
        },
        {
          "internalType": "bool",
          "name": "expired",
          "type": "bool"
        },
        {
          "internalType": "uint256",
          "name": "price",
          "type": "uint256"
        },
        {
          "internalType": "bool",
          "name": "forSale",
          "type": "bool"
        },
        {
          "internalType": "uint8",
          "name": "requestStatus",
          "type": "uint8"
        },
        {
          "internalType": "uint256",
          "name": "numOfAuditors",
          "type": "uint256"
        },
        {
          "internalType": "uint256",
          "name": "auditFees",
          "type": "uint256"
        },
        {
          "internalType": "int256",
          "name": "auditScore",
          "type": "int256"
        }
      ],
      "stateMutability": "view",
      "type": "function"
    },
    {
      "inputs": [
        {
          "internalType": "uint256",
          "name": "amount",
          "type": "uint256"
        },
        {
          "internalType": "uint256",
          "name": "price",
          "type": "uint256"
        }
      ],
      "name": "generateCredit",
      "outputs": [],
      "stateMutability": "nonpayable",
      "type": "function"
    },
    {
      "inputs": [
        {
          "internalType": "uint256",
          "name": "creditId",
          "type": "uint256"
        }
      ],
      "name": "getAuditorList",
      "outputs": [
        {
          "internalType": "address[]",
          "name": "",
          "type": "address[]"
        }
      ],
      "stateMutability": "view",
      "type": "function"
    },
    {
      "inputs": [
        {
          "internalType": "uint256",
          "name": "creditId",
          "type": "uint256"
        },
        {
          "internalType": "address",
          "name": "auditor",
          "type": "address"
        }
      ],
      "name": "getAuditorVote",
      "outputs": [
        {
          "internalType": "bool",
          "name": "",
          "type": "bool"
        }
      ],
      "stateMutability": "view",
      "type": "function"
    },
    {
      "inputs": [],
      "name": "getContractBalance",
      "outputs": [
        {
          "internalType": "uint256",
          "name": "",
          "type": "uint256"
        }
      ],
      "stateMutability": "view",
      "type": "function"
    },
    {
      "inputs": [
        {
          "internalType": "uint256",
          "name": "creditId",
          "type": "uint256"
        }
      ],
      "name": "getCreator",
      "outputs": [
        {
          "internalType": "address",
          "name": "",
          "type": "address"
        }
      ],
      "stateMutability": "view",
      "type": "function"
    },
    {
      "inputs": [],
      "name": "getNextCreditId",
      "outputs": [
        {
          "internalType": "uint256",
          "name": "",
          "type": "uint256"
        }
      ],
      "stateMutability": "view",
      "type": "function"
    },
    {
      "inputs": [
        {
          "internalType": "uint256",
          "name": "creditId",
          "type": "uint256"
        }
      ],
      "name": "getOwner",
      "outputs": [
        {
          "internalType": "address",
          "name": "",
          "type": "address"
        }
      ],
      "stateMutability": "view",
      "type": "function"
    },
    {
      "inputs": [
        {
          "internalType": "uint256",
          "name": "creditId",
          "type": "uint256"
        }
      ],
      "name": "getPrice",
      "outputs": [
        {
          "internalType": "uint256",
          "name": "",
          "type": "uint256"
        }
      ],
      "stateMutability": "view",
      "type": "function"
    },
    {
      "inputs": [
        {
          "internalType": "uint256",
          "name": "creditId",
          "type": "uint256"
        }
      ],
      "name": "isExpired",
      "outputs": [
        {
          "internalType": "bool",
          "name": "",
          "type": "bool"
        }
      ],
      "stateMutability": "view",
      "type": "function"
    },
    {
      "inputs": [
        {
          "internalType": "uint256",
          "name": "creditId",
          "type": "uint256"
        }
      ],
      "name": "removeFromSale",
      "outputs": [],
      "stateMutability": "nonpayable",
      "type": "function"
    },
    {
      "inputs": [
        {
          "internalType": "uint256",
          "name": "creditId",
          "type": "uint256"
        }
      ],
      "name": "requestAudit",
      "outputs": [],
      "stateMutability": "payable",
      "type": "function"
    },
    {
      "inputs": [
        {
          "internalType": "uint256",
          "name": "creditId",
          "type": "uint256"
        },
        {
          "internalType": "uint256",
          "name": "price",
          "type": "uint256"
        }
      ],
      "name": "sellCredit",
      "outputs": [],
      "stateMutability": "nonpayable",
      "type": "function"
    }
  ],
  "bytecode": "0x608060405234801561001057600080fd5b5061188b806100206000396000f3fe6080604052600436106100f35760003560e01c8063a35bcbef1161008a578063d9548e5311610059578063d9548e5314610325578063e757223014610362578063f2e504181461039f578063f5383175146103dc576100f3565b8063a35bcbef14610259578063c41a360a14610282578063ca850692146102bf578063d48e638a146102e8576100f3565b80636f9fb98a116100c65780636f9fb98a146101ac5780637211dde4146101d757806373d8624f146101f3578063a33fd53b14610230576100f3565b8063036a1c22146100f85780631361a3b61461013e5780633047456f146101675780634b6dd59014610190575b600080fd5b34801561010457600080fd5b5061011f600480360381019061011a919061121d565b610407565b6040516101359a999897969594939291906112ea565b60405180910390f35b34801561014a57600080fd5b506101656004803603810190610160919061121d565b6104c2565b005b34801561017357600080fd5b5061018e60048036038101906101899190611386565b610582565b005b6101aa60048036038101906101a5919061121d565b61067d565b005b3480156101b857600080fd5b506101c1610788565b6040516101ce91906113c6565b60405180910390f35b6101f160048036038101906101ec919061121d565b610790565b005b3480156101ff57600080fd5b5061021a6004803603810190610215919061121d565b61099b565b604051610227919061149f565b60405180910390f35b34801561023c57600080fd5b506102576004803603810190610252919061121d565b610a3e565b005b34801561026557600080fd5b50610280600480360381019061027b91906114ed565b610b09565b005b34801561028e57600080fd5b506102a960048036038101906102a4919061121d565b610ea3565b6040516102b6919061152d565b60405180910390f35b3480156102cb57600080fd5b506102e660048036038101906102e19190611386565b610ee2565b005b3480156102f457600080fd5b5061030f600480360381019061030a919061121d565b6110e4565b60405161031c919061152d565b60405180910390f35b34801561033157600080fd5b5061034c6004803603810190610347919061121d565b611123565b6040516103599190611548565b60405180910390f35b34801561036e57600080fd5b506103896004803603810190610384919061121d565b61114f565b60405161039691906113c6565b60405180910390f35b3480156103ab57600080fd5b506103c660048036038101906103c1919061158f565b61116e565b6040516103d39190611548565b60405180910390f35b3480156103e857600080fd5b506103f16111d8565b6040516103fe91906113c6565b60405180910390f35b60006020528060005260406000206000915090508060000154908060010160009054906101000a900473ffffffffffffffffffffffffffffffffffffffff16908060020160009054906101000a900473ffffffffffffffffffffffffffffffffffffffff16908060020160149054906101000a900460ff16908060030154908060040160009054906101000a900460ff16908060040160019054906101000a900460ff1690806005015490806006015490806007015490508a565b600080600083815260200190815260200160002090508060020160009054906101000a900473ffffffffffffffffffffffffffffffffffffffff1673ffffffffffffffffffffffffffffffffffffffff163373ffffffffffffffffffffffffffffffffffffffff1614610561576040517f8a715f9900000000000000000000000000000000000000000000000000000000815260040160405180910390fd5b60008160040160006101000a81548160ff0219169083151502179055505050565b600080600060015481526020019081526020016000209050828160000181905550338160010160006101000a81548173ffffffffffffffffffffffffffffffffffffffff021916908373ffffffffffffffffffffffffffffffffffffffff160217905550338160020160006101000a81548173ffffffffffffffffffffffffffffffffffffffff021916908373ffffffffffffffffffffffffffffffffffffffff160217905550818160030181905550600360026101f485610644919061162d565b61064e919061165e565b61065891906116a0565b816005018190555060016000815480929190610673906116d4565b9190505550505050565b600080600083815260200190815260200160002060040160019054906101000a900460ff1660ff16146106dc576040517f2acf5b7000000000000000000000000000000000000000000000000000000000815260040160405180910390fd5b60008082815260200190815260200160002060000154655af3107a4000610703919061165e565b34101561073c576040517f93b11cab00000000000000000000000000000000000000000000000000000000815260040160405180910390fd5b600160008083815260200190815260200160002060040160016101000a81548160ff021916908360ff160217905550346000808381526020019081526020016000206006018190555050565b600047905090565b60008060008381526020019081526020016000209050600015158160040160009054906101000a900460ff161515036107f5576040517f648b466f00000000000000000000000000000000000000000000000000000000815260040160405180910390fd5b80600301543414610832576040517fa2c2d5c600000000000000000000000000000000000000000000000000000000815260040160405180910390fd5b60006064600a34610843919061165e565b61084d919061162d565b90506000813461085d919061171c565b90508260010160009054906101000a900473ffffffffffffffffffffffffffffffffffffffff1673ffffffffffffffffffffffffffffffffffffffff166108fc839081150290604051600060405180830381858888f193505050501580156108c9573d6000803e3d6000fd5b508260020160009054906101000a900473ffffffffffffffffffffffffffffffffffffffff1673ffffffffffffffffffffffffffffffffffffffff166108fc829081150290604051600060405180830381858888f19350505050158015610934573d6000803e3d6000fd5b50338360020160006101000a81548173ffffffffffffffffffffffffffffffffffffffff021916908373ffffffffffffffffffffffffffffffffffffffff16021790555060008360040160006101000a81548160ff02191690831515021790555050505050565b6060600080838152602001908152602001600020600801805480602002602001604051908101604052809291908181526020018280548015610a3257602002820191906000526020600020905b8160009054906101000a900473ffffffffffffffffffffffffffffffffffffffff1673ffffffffffffffffffffffffffffffffffffffff16815260200190600101908083116109e8575b50505050509050919050565b60008082815260200190815260200160002060010160009054906101000a900473ffffffffffffffffffffffffffffffffffffffff1673ffffffffffffffffffffffffffffffffffffffff163373ffffffffffffffffffffffffffffffffffffffff1614610ad8576040517ffeeecc3400000000000000000000000000000000000000000000000000000000815260040160405180910390fd5b600160008083815260200190815260200160002060020160146101000a81548160ff02191690831515021790555050565b600080600084815260200190815260200160002090508060010160009054906101000a900473ffffffffffffffffffffffffffffffffffffffff1673ffffffffffffffffffffffffffffffffffffffff163373ffffffffffffffffffffffffffffffffffffffff1603610ba8576040517fe53232aa00000000000000000000000000000000000000000000000000000000815260040160405180910390fd5b60018160040160019054906101000a900460ff1660ff1614610bf6576040517f2fe529b200000000000000000000000000000000000000000000000000000000815260040160405180910390fd5b60005b8160080180549050811015610cba573373ffffffffffffffffffffffffffffffffffffffff16826008018281548110610c3557610c34611750565b5b9060005260206000200160009054906101000a900473ffffffffffffffffffffffffffffffffffffffff1673ffffffffffffffffffffffffffffffffffffffff1603610cad576040517f2fe529b200000000000000000000000000000000000000000000000000000000815260040160405180910390fd5b8080600101915050610bf9565b50818160090160003373ffffffffffffffffffffffffffffffffffffffff1673ffffffffffffffffffffffffffffffffffffffff16815260200190815260200160002060006101000a81548160ff02191690831515021790555080600801339080600181540180825580915050600190039060005260206000200160009091909190916101000a81548173ffffffffffffffffffffffffffffffffffffffff021916908373ffffffffffffffffffffffffffffffffffffffff1602179055508115610d9e57806007016000815480929190610d949061177f565b9190505550610db9565b806007016000815480929190610db3906117c7565b91905055505b8060050154816008018054905003610dea5760028160040160016101000a81548160ff021916908360ff1602179055505b60003373ffffffffffffffffffffffffffffffffffffffff1660038360060154610e14919061162d565b604051610e2090611840565b60006040518083038185875af1925050503d8060008114610e5d576040519150601f19603f3d011682016040523d82523d6000602084013e610e62565b606091505b5050905080610e9d576040517f2d0015bc00000000000000000000000000000000000000000000000000000000815260040160405180910390fd5b50505050565b600080600083815260200190815260200160002060020160009054906101000a900473ffffffffffffffffffffffffffffffffffffffff169050919050565b60008060008481526020019081526020016000209050600073ffffffffffffffffffffffffffffffffffffffff168160020160009054906101000a900473ffffffffffffffffffffffffffffffffffffffff1673ffffffffffffffffffffffffffffffffffffffff1603610f82576040517f854f4ad100000000000000000000000000000000000000000000000000000000815260040160405180910390fd5b8060020160009054906101000a900473ffffffffffffffffffffffffffffffffffffffff1673ffffffffffffffffffffffffffffffffffffffff163373ffffffffffffffffffffffffffffffffffffffff161461100b576040517f4400708d00000000000000000000000000000000000000000000000000000000815260040160405180910390fd5b600260008085815260200190815260200160002060040160019054906101000a900460ff1660ff161461106a576040517f76eb7a6000000000000000000000000000000000000000000000000000000000815260040160405180910390fd5b600080600085815260200190815260200160002060070154136110b9576040517f8be25c5800000000000000000000000000000000000000000000000000000000815260040160405180910390fd5b81816003018190555060018160040160006101000a81548160ff021916908315150217905550505050565b600080600083815260200190815260200160002060010160009054906101000a900473ffffffffffffffffffffffffffffffffffffffff169050919050565b600080600083815260200190815260200160002060020160149054906101000a900460ff169050919050565b6000806000838152602001908152602001600020600301549050919050565b600080600084815260200190815260200160002060090160008373ffffffffffffffffffffffffffffffffffffffff1673ffffffffffffffffffffffffffffffffffffffff16815260200190815260200160002060009054906101000a900460ff16905092915050565b6000600154905090565b600080fd5b6000819050919050565b6111fa816111e7565b811461120557600080fd5b50565b600081359050611217816111f1565b92915050565b600060208284031215611233576112326111e2565b5b600061124184828501611208565b91505092915050565b611253816111e7565b82525050565b600073ffffffffffffffffffffffffffffffffffffffff82169050919050565b600061128482611259565b9050919050565b61129481611279565b82525050565b60008115159050919050565b6112af8161129a565b82525050565b600060ff82169050919050565b6112cb816112b5565b82525050565b6000819050919050565b6112e4816112d1565b82525050565b600061014082019050611300600083018d61124a565b61130d602083018c61128b565b61131a604083018b61128b565b611327606083018a6112a6565b611334608083018961124a565b61134160a08301886112a6565b61134e60c08301876112c2565b61135b60e083018661124a565b61136961010083018561124a565b6113776101208301846112db565b9b9a5050505050505050505050565b6000806040838503121561139d5761139c6111e2565b5b60006113ab85828601611208565b92505060206113bc85828601611208565b9150509250929050565b60006020820190506113db600083018461124a565b92915050565b600081519050919050565b600082825260208201905092915050565b6000819050602082019050919050565b61141681611279565b82525050565b6000611428838361140d565b60208301905092915050565b6000602082019050919050565b600061144c826113e1565b61145681856113ec565b9350611461836113fd565b8060005b83811015611492578151611479888261141c565b975061148483611434565b925050600181019050611465565b5085935050505092915050565b600060208201905081810360008301526114b98184611441565b905092915050565b6114ca8161129a565b81146114d557600080fd5b50565b6000813590506114e7816114c1565b92915050565b60008060408385031215611504576115036111e2565b5b600061151285828601611208565b9250506020611523858286016114d8565b9150509250929050565b6000602082019050611542600083018461128b565b92915050565b600060208201905061155d60008301846112a6565b92915050565b61156c81611279565b811461157757600080fd5b50565b60008135905061158981611563565b92915050565b600080604083850312156115a6576115a56111e2565b5b60006115b485828601611208565b92505060206115c58582860161157a565b9150509250929050565b7f4e487b7100000000000000000000000000000000000000000000000000000000600052601260045260246000fd5b7f4e487b7100000000000000000000000000000000000000000000000000000000600052601160045260246000fd5b6000611638826111e7565b9150611643836111e7565b925082611653576116526115cf565b5b828204905092915050565b6000611669826111e7565b9150611674836111e7565b9250828202611682816111e7565b91508282048414831517611699576116986115fe565b5b5092915050565b60006116ab826111e7565b91506116b6836111e7565b92508282019050808211156116ce576116cd6115fe565b5b92915050565b60006116df826111e7565b91507fffffffffffffffffffffffffffffffffffffffffffffffffffffffffffffffff8203611711576117106115fe565b5b600182019050919050565b6000611727826111e7565b9150611732836111e7565b925082820390508181111561174a576117496115fe565b5b92915050565b7f4e487b7100000000000000000000000000000000000000000000000000000000600052603260045260246000fd5b600061178a826112d1565b91507f7fffffffffffffffffffffffffffffffffffffffffffffffffffffffffffffff82036117bc576117bb6115fe565b5b600182019050919050565b60006117d2826112d1565b91507f80000000000000000000000000000000000000000000000000000000000000008203611804576118036115fe565b5b600182039050919050565b600081905092915050565b50565b600061182a60008361180f565b91506118358261181a565b600082019050919050565b600061184b8261181d565b915081905091905056fea26469706673582212200e7d8d939715d13c8ce0413ad3d264c8a6535d699e5fe33ece8304e722fc049764736f6c63430008180033",
  "linkReferences": {},
  "deployedLinkReferences": {}
}